{
  "_format": "hh-sol-artifact-1",
  "contractName": "ComplianceCheck",
  "sourceName": "contracts/Company.sol",
  "abi": [
    {
      "inputs": [
        {
          "internalType": "uint256[]",
          "name": "ids",
          "type": "uint256[]"
        },
        {
          "internalType": "string[]",
          "name": "c_names",
          "type": "string[]"
        },
        {
          "internalType": "string[]",
          "name": "c_statuses",
          "type": "string[]"
        },
        {
          "internalType": "string[]",
          "name": "c_summary",
          "type": "string[]"
        }
      ],
      "stateMutability": "nonpayable",
      "type": "constructor"
    },
    {
      "inputs": [
        {
          "internalType": "uint256[]",
          "name": "ids",
          "type": "uint256[]"
        },
        {
          "internalType": "string[]",
          "name": "c_names",
          "type": "string[]"
        },
        {
          "internalType": "string[]",
          "name": "c_statuses",
          "type": "string[]"
        },
        {
          "internalType": "string[]",
          "name": "c_summary",
          "type": "string[]"
        }
      ],
      "name": "addCompanies",
      "outputs": [],
      "stateMutability": "nonpayable",
      "type": "function"
    },
    {
      "inputs": [
        {
          "internalType": "uint256",
          "name": "",
          "type": "uint256"
        }
      ],
      "name": "companies",
      "outputs": [
        {
          "internalType": "uint256",
          "name": "company_id",
          "type": "uint256"
        },
        {
          "internalType": "string",
          "name": "company_name",
          "type": "string"
        },
        {
          "internalType": "string",
          "name": "company_status",
          "type": "string"
        },
        {
          "internalType": "string",
          "name": "summary_text",
          "type": "string"
        }
      ],
      "stateMutability": "view",
      "type": "function"
    },
    {
      "inputs": [],
      "name": "nextCompanyId",
      "outputs": [
        {
          "internalType": "uint256",
          "name": "",
          "type": "uint256"
        }
      ],
      "stateMutability": "view",
      "type": "function"
    },
    {
      "inputs": [],
      "name": "returnData",
      "outputs": [
        {
          "components": [
            {
              "internalType": "uint256",
              "name": "company_id",
              "type": "uint256"
            },
            {
              "internalType": "string",
              "name": "company_name",
              "type": "string"
            },
            {
              "internalType": "string",
              "name": "company_status",
              "type": "string"
            },
            {
              "internalType": "string",
              "name": "summary_text",
              "type": "string"
            }
          ],
          "internalType": "struct ComplianceCheck.Company[]",
          "name": "",
          "type": "tuple[]"
        }
      ],
      "stateMutability": "view",
      "type": "function"
    }
  ],
  "bytecode": "0x60806040523480156200001157600080fd5b5060405162001d2738038062001d278339818101604052810190620000379190620005ba565b81518451146200007e576040517f08c379a0000000000000000000000000000000000000000000000000000000008152600401620000759062000709565b60405180910390fd5b60005b84518110156200020f5760006040518060800160405280878481518110620000ae57620000ad6200072b565b5b60200260200101518152602001868481518110620000d157620000d06200072b565b5b60200260200101518152602001858481518110620000f457620000f36200072b565b5b602002602001015181526020018484815181106200011757620001166200072b565b5b602002602001015181525090806001815401808255809150506001900390600052602060002090600402016000909190919091506000820151816000015560208201518160010190816200016c91906200099b565b5060408201518160020190816200018491906200099b565b5060608201518160030190816200019c91906200099b565b505050600154858281518110620001b857620001b76200072b565b5b602002602001015110620001f9576001858281518110620001de57620001dd6200072b565b5b6020026020010151620001f2919062000ab1565b6001819055505b8080620002069062000aec565b91505062000081565b505050505062000b39565b6000604051905090565b600080fd5b600080fd5b600080fd5b6000601f19601f8301169050919050565b7f4e487b7100000000000000000000000000000000000000000000000000000000600052604160045260246000fd5b6200027e8262000233565b810181811067ffffffffffffffff82111715620002a0576200029f62000244565b5b80604052505050565b6000620002b56200021a565b9050620002c3828262000273565b919050565b600067ffffffffffffffff821115620002e657620002e562000244565b5b602082029050602081019050919050565b600080fd5b6000819050919050565b6200031181620002fc565b81146200031d57600080fd5b50565b600081519050620003318162000306565b92915050565b60006200034e6200034884620002c8565b620002a9565b90508083825260208201905060208402830185811115620003745762000373620002f7565b5b835b81811015620003a157806200038c888262000320565b84526020840193505060208101905062000376565b5050509392505050565b600082601f830112620003c357620003c26200022e565b5b8151620003d584826020860162000337565b91505092915050565b600067ffffffffffffffff821115620003fc57620003fb62000244565b5b602082029050602081019050919050565b600080fd5b600067ffffffffffffffff82111562000430576200042f62000244565b5b6200043b8262000233565b9050602081019050919050565b60005b83811015620004685780820151818401526020810190506200044b565b60008484015250505050565b60006200048b620004858462000412565b620002a9565b905082815260208101848484011115620004aa57620004a96200040d565b5b620004b784828562000448565b509392505050565b600082601f830112620004d757620004d66200022e565b5b8151620004e984826020860162000474565b91505092915050565b6000620005096200050384620003de565b620002a9565b905080838252602082019050602084028301858111156200052f576200052e620002f7565b5b835b818110156200057d57805167ffffffffffffffff8111156200055857620005576200022e565b5b808601620005678982620004bf565b8552602085019450505060208101905062000531565b5050509392505050565b600082601f8301126200059f576200059e6200022e565b5b8151620005b1848260208601620004f2565b91505092915050565b60008060008060808587031215620005d757620005d662000224565b5b600085015167ffffffffffffffff811115620005f857620005f762000229565b5b6200060687828801620003ab565b945050602085015167ffffffffffffffff8111156200062a576200062962000229565b5b620006388782880162000587565b935050604085015167ffffffffffffffff8111156200065c576200065b62000229565b5b6200066a8782880162000587565b925050606085015167ffffffffffffffff8111156200068e576200068d62000229565b5b6200069c8782880162000587565b91505092959194509250565b600082825260208201905092915050565b7f496e76616c696420696e707574206c656e677468730000000000000000000000600082015250565b6000620006f1601583620006a8565b9150620006fe82620006b9565b602082019050919050565b600060208201905081810360008301526200072481620006e2565b9050919050565b7f4e487b7100000000000000000000000000000000000000000000000000000000600052603260045260246000fd5b600081519050919050565b7f4e487b7100000000000000000000000000000000000000000000000000000000600052602260045260246000fd5b60006002820490506001821680620007ad57607f821691505b602082108103620007c357620007c262000765565b5b50919050565b60008190508160005260206000209050919050565b60006020601f8301049050919050565b600082821b905092915050565b6000600883026200082d7fffffffffffffffffffffffffffffffffffffffffffffffffffffffffffffffff82620007ee565b620008398683620007ee565b95508019841693508086168417925050509392505050565b6000819050919050565b60006200087c620008766200087084620002fc565b62000851565b620002fc565b9050919050565b6000819050919050565b62000898836200085b565b620008b0620008a78262000883565b848454620007fb565b825550505050565b600090565b620008c7620008b8565b620008d48184846200088d565b505050565b5b81811015620008fc57620008f0600082620008bd565b600181019050620008da565b5050565b601f8211156200094b576200091581620007c9565b6200092084620007de565b8101602085101562000930578190505b620009486200093f85620007de565b830182620008d9565b50505b505050565b600082821c905092915050565b6000620009706000198460080262000950565b1980831691505092915050565b60006200098b83836200095d565b9150826002028217905092915050565b620009a6826200075a565b67ffffffffffffffff811115620009c257620009c162000244565b5b620009ce825462000794565b620009db82828562000900565b600060209050601f83116001811462000a135760008415620009fe578287015190505b62000a0a85826200097d565b86555062000a7a565b601f19841662000a2386620007c9565b60005b8281101562000a4d5784890151825560018201915060208501945060208101905062000a26565b8683101562000a6d578489015162000a69601f8916826200095d565b8355505b6001600288020188555050505b505050505050565b7f4e487b7100000000000000000000000000000000000000000000000000000000600052601160045260246000fd5b600062000abe82620002fc565b915062000acb83620002fc565b925082820190508082111562000ae65762000ae562000a82565b5b92915050565b600062000af982620002fc565b91507fffffffffffffffffffffffffffffffffffffffffffffffffffffffffffffffff820362000b2e5762000b2d62000a82565b5b600182019050919050565b6111de8062000b496000396000f3fe608060405234801561001057600080fd5b506004361061004c5760003560e01c806313fc534c146100515780632813d19d1461006d578063d8d3c829146100a0578063ebddbaf6146100be575b600080fd5b61006b600480360381019061006691906109cf565b6100dc565b005b61008760048036038101906100829190610aa6565b610299565b6040516100979493929190610b61565b60405180910390f35b6100a8610471565b6040516100b59190610bbb565b60405180910390f35b6100c6610477565b6040516100d39190610d62565b60405180910390f35b8151845114610120576040517f08c379a000000000000000000000000000000000000000000000000000000000815260040161011790610dd0565b60405180910390fd5b60005b8451811015610292576000604051806080016040528087848151811061014c5761014b610df0565b5b6020026020010151815260200186848151811061016c5761016b610df0565b5b6020026020010151815260200185848151811061018c5761018b610df0565b5b602002602001015181526020018484815181106101ac576101ab610df0565b5b602002602001015181525090806001815401808255809150506001900390600052602060002090600402016000909190919091506000820151816000015560208201518160010190816101ff919061102b565b506040820151816002019081610215919061102b565b50606082015181600301908161022b919061102b565b50505060015485828151811061024457610243610df0565b5b60200260200101511061027f57600185828151811061026657610265610df0565b5b6020026020010151610278919061112c565b6001819055505b808061028a90611160565b915050610123565b5050505050565b600081815481106102a957600080fd5b90600052602060002090600402016000915090508060000154908060010180546102d290610e4e565b80601f01602080910402602001604051908101604052809291908181526020018280546102fe90610e4e565b801561034b5780601f106103205761010080835404028352916020019161034b565b820191906000526020600020905b81548152906001019060200180831161032e57829003601f168201915b50505050509080600201805461036090610e4e565b80601f016020809104026020016040519081016040528092919081815260200182805461038c90610e4e565b80156103d95780601f106103ae576101008083540402835291602001916103d9565b820191906000526020600020905b8154815290600101906020018083116103bc57829003601f168201915b5050505050908060030180546103ee90610e4e565b80601f016020809104026020016040519081016040528092919081815260200182805461041a90610e4e565b80156104675780601f1061043c57610100808354040283529160200191610467565b820191906000526020600020905b81548152906001019060200180831161044a57829003601f168201915b5050505050905084565b60015481565b60606000805480602002602001604051908101604052809291908181526020016000905b8282101561068d5783829060005260206000209060040201604051806080016040529081600082015481526020016001820180546104d890610e4e565b80601f016020809104026020016040519081016040528092919081815260200182805461050490610e4e565b80156105515780601f1061052657610100808354040283529160200191610551565b820191906000526020600020905b81548152906001019060200180831161053457829003601f168201915b5050505050815260200160028201805461056a90610e4e565b80601f016020809104026020016040519081016040528092919081815260200182805461059690610e4e565b80156105e35780601f106105b8576101008083540402835291602001916105e3565b820191906000526020600020905b8154815290600101906020018083116105c657829003601f168201915b505050505081526020016003820180546105fc90610e4e565b80601f016020809104026020016040519081016040528092919081815260200182805461062890610e4e565b80156106755780601f1061064a57610100808354040283529160200191610675565b820191906000526020600020905b81548152906001019060200180831161065857829003601f168201915b5050505050815250508152602001906001019061049b565b50505050905090565b6000604051905090565b600080fd5b600080fd5b600080fd5b6000601f19601f8301169050919050565b7f4e487b7100000000000000000000000000000000000000000000000000000000600052604160045260246000fd5b6106f8826106af565b810181811067ffffffffffffffff82111715610717576107166106c0565b5b80604052505050565b600061072a610696565b905061073682826106ef565b919050565b600067ffffffffffffffff821115610756576107556106c0565b5b602082029050602081019050919050565b600080fd5b6000819050919050565b61077f8161076c565b811461078a57600080fd5b50565b60008135905061079c81610776565b92915050565b60006107b56107b08461073b565b610720565b905080838252602082019050602084028301858111156107d8576107d7610767565b5b835b8181101561080157806107ed888261078d565b8452602084019350506020810190506107da565b5050509392505050565b600082601f8301126108205761081f6106aa565b5b81356108308482602086016107a2565b91505092915050565b600067ffffffffffffffff821115610854576108536106c0565b5b602082029050602081019050919050565b600080fd5b600067ffffffffffffffff821115610885576108846106c0565b5b61088e826106af565b9050602081019050919050565b82818337600083830152505050565b60006108bd6108b88461086a565b610720565b9050828152602081018484840111156108d9576108d8610865565b5b6108e484828561089b565b509392505050565b600082601f830112610901576109006106aa565b5b81356109118482602086016108aa565b91505092915050565b600061092d61092884610839565b610720565b905080838252602082019050602084028301858111156109505761094f610767565b5b835b8181101561099757803567ffffffffffffffff811115610975576109746106aa565b5b80860161098289826108ec565b85526020850194505050602081019050610952565b5050509392505050565b600082601f8301126109b6576109b56106aa565b5b81356109c684826020860161091a565b91505092915050565b600080600080608085870312156109e9576109e86106a0565b5b600085013567ffffffffffffffff811115610a0757610a066106a5565b5b610a138782880161080b565b945050602085013567ffffffffffffffff811115610a3457610a336106a5565b5b610a40878288016109a1565b935050604085013567ffffffffffffffff811115610a6157610a606106a5565b5b610a6d878288016109a1565b925050606085013567ffffffffffffffff811115610a8e57610a8d6106a5565b5b610a9a878288016109a1565b91505092959194509250565b600060208284031215610abc57610abb6106a0565b5b6000610aca8482850161078d565b91505092915050565b610adc8161076c565b82525050565b600081519050919050565b600082825260208201905092915050565b60005b83811015610b1c578082015181840152602081019050610b01565b60008484015250505050565b6000610b3382610ae2565b610b3d8185610aed565b9350610b4d818560208601610afe565b610b56816106af565b840191505092915050565b6000608082019050610b766000830187610ad3565b8181036020830152610b888186610b28565b90508181036040830152610b9c8185610b28565b90508181036060830152610bb08184610b28565b905095945050505050565b6000602082019050610bd06000830184610ad3565b92915050565b600081519050919050565b600082825260208201905092915050565b6000819050602082019050919050565b610c0b8161076c565b82525050565b600082825260208201905092915050565b6000610c2d82610ae2565b610c378185610c11565b9350610c47818560208601610afe565b610c50816106af565b840191505092915050565b6000608083016000830151610c736000860182610c02565b5060208301518482036020860152610c8b8282610c22565b91505060408301518482036040860152610ca58282610c22565b91505060608301518482036060860152610cbf8282610c22565b9150508091505092915050565b6000610cd88383610c5b565b905092915050565b6000602082019050919050565b6000610cf882610bd6565b610d028185610be1565b935083602082028501610d1485610bf2565b8060005b85811015610d505784840389528151610d318582610ccc565b9450610d3c83610ce0565b925060208a01995050600181019050610d18565b50829750879550505050505092915050565b60006020820190508181036000830152610d7c8184610ced565b905092915050565b7f496e76616c696420696e707574206c656e677468730000000000000000000000600082015250565b6000610dba601583610aed565b9150610dc582610d84565b602082019050919050565b60006020820190508181036000830152610de981610dad565b9050919050565b7f4e487b7100000000000000000000000000000000000000000000000000000000600052603260045260246000fd5b7f4e487b7100000000000000000000000000000000000000000000000000000000600052602260045260246000fd5b60006002820490506001821680610e6657607f821691505b602082108103610e7957610e78610e1f565b5b50919050565b60008190508160005260206000209050919050565b60006020601f8301049050919050565b600082821b905092915050565b600060088302610ee17fffffffffffffffffffffffffffffffffffffffffffffffffffffffffffffffff82610ea4565b610eeb8683610ea4565b95508019841693508086168417925050509392505050565b6000819050919050565b6000610f28610f23610f1e8461076c565b610f03565b61076c565b9050919050565b6000819050919050565b610f4283610f0d565b610f56610f4e82610f2f565b848454610eb1565b825550505050565b600090565b610f6b610f5e565b610f76818484610f39565b505050565b5b81811015610f9a57610f8f600082610f63565b600181019050610f7c565b5050565b601f821115610fdf57610fb081610e7f565b610fb984610e94565b81016020851015610fc8578190505b610fdc610fd485610e94565b830182610f7b565b50505b505050565b600082821c905092915050565b600061100260001984600802610fe4565b1980831691505092915050565b600061101b8383610ff1565b9150826002028217905092915050565b61103482610ae2565b67ffffffffffffffff81111561104d5761104c6106c0565b5b6110578254610e4e565b611062828285610f9e565b600060209050601f8311600181146110955760008415611083578287015190505b61108d858261100f565b8655506110f5565b601f1984166110a386610e7f565b60005b828110156110cb578489015182556001820191506020850194506020810190506110a6565b868310156110e857848901516110e4601f891682610ff1565b8355505b6001600288020188555050505b505050505050565b7f4e487b7100000000000000000000000000000000000000000000000000000000600052601160045260246000fd5b60006111378261076c565b91506111428361076c565b925082820190508082111561115a576111596110fd565b5b92915050565b600061116b8261076c565b91507fffffffffffffffffffffffffffffffffffffffffffffffffffffffffffffffff820361119d5761119c6110fd565b5b60018201905091905056fea2646970667358221220437ff306ac3b9111803babd6dedbc89312c24953ad3b0ce191106f020b019aca64736f6c63430008130033",
  "linkReferences": {},
  "deployedLinkReferences": {}
}